:020000040800F2
:1000000020160020490100086D1400088512000820
:1000100069140008A9090008E7240008000000008E
:10002000000000000000000000000000D5180008DB
:10003000850A00080000000065150008E91900089D
:100040006301000863010008630100086301000800
:10005000630100086301000863010008250C000823
:1000600063010008290C0008A90C000863010008BE
:10007000210A000863010008630100086301000809
:1000800063010008630100086301000863010008C0
:10009000630100086301000863010008290D0008DE
:1000A00063010008630100086301000863010008A0
:1000B000630100084D1A000863010008630100088D
:1000C0006301000863010008630100086301000880
:1000D000630100086521000863010008C5220008CB
:1000E000190B0008630100086301000863010008A0
:1000F0006301000863010008630100086301000850
:100100006301000863010008911A000863010008F8
:100110006301000863010008B11D000863010008C5
:10012000630100086301000863010008630100081F
:10013000DFF810D000F01AFC0048004749480008DA
:10014000AFF300802016002006488047064800478D
:10015000FEE7FEE7FEE7FEE7FEE7FEE7FEE7FEE777
:10016000FEE7FEE7ED19000831010008D2B201E018
:1001700000F8012B491EFBD270470022F6E710B5AC
:1001800013460A4604461946FFF7F0FF204610BD05
:1001900030B504460020034600E05B1C934203D2C6
:1001A000E05CCD5C401BF8D030BDF0B480EA0102C9
:1001B000D40F4200B2EB410F02D20246084611466C
:1001C0004A0042D0C30DDDB2C1F3C752AD1A202D93
:1001D00035DAC1F3160141F4000204B15242C5F10F
:1001E000200602FA06F12A411044B3EBD05F23D077
:1001F000C4B1012DA0EBC35009DCF0BC4FF00042AC
:1002000002EAC352DBB200F5000000F0B1BA4000D0
:1002100000F1807000EBC350A0F1807040EAD17013
:10022000490009E0490841EAC071A0EBC35000F55C
:100230000000400800EBC350F0BC00F090BA6142EF
:10024000012202EB4101001BF6E7F0BC704781F090
:100250000041AAE780F00040A7E780EA010210B55C
:1002600002F00043400022D04A001FD0010E01EBF3
:100270001261C0F35600C2F3560240F4000042F48B
:100280000002A0FB022000047F39140400D0401CAF
:1002900050EA124001D44000491EC2B20C0604EBE1
:1002A000D010401C4008802A02D003E0002010BD7E
:1002B00020F00100002900DA0020184310BD30B4FE
:1002C00080EA010202F0004530F0004221F00040D7
:1002D00013D090B1C30DD40DC2F31601C0F31600B4
:1002E000E41A41F4000140F400027D34914201D34C
:1002F000641C00E04900002C02DA30BC002070478A
:100300004FF400000023914201D3891A03434008AF
:100310004FEA4101F7D151B1914202D14FF0004172
:1003200005E002D24FF0010101E06FF0010103EBA3
:10033000C450284430BC00F012BA2DE9FE4F80466C
:1003400081EA0300C00F0C46009021F0004123F029
:100350000045B8EB0200A94105D24046214690462F
:100360001C460B46024623F00040104347D0270DA1
:10037000C7F30A00C3F30A510290401A01904028C3
:100380006BDAC3F3130040F4801B0098924620B14F
:100390000023D2EB030A63EB0B0B01985946C0F123
:1003A0004002504600F0AAF906460D46504659460E
:1003B000019A00F0C2F910EB08006141002487EABD
:1003C000115284EAE7731A4340D0009A62B3019A4B
:1003D000012A4FEA075215DC001B61EB02014FF0C6
:1003E000004202EA0752CDE90042001C41F58011AB
:1003F00032462B4600F046FA03B0BDE8F08F404687
:100400002146F9E7001B61EB0201001C41F5801356
:1004100000185B412018A2F5001747EB030140EAE2
:10042000D570B6196D4111E06D084FEA360645EA00
:10043000C0754FEA0752001B61EB0201001C41F539
:10044000801149084FEA30000019514132462B46CD
:1004500003B0BDE8F04F00F006BA0098012240005A
:100460000023D0EB020263EBE073009821464FEAD1
:10047000E074B8EB000061EB0401E9E783F00043AE
:100480005BE781F0004158E72DE9FE4F81EA030464
:1004900004F0004421F0004100944FF0000B23F0E1
:1004A000004350EA01045ED052EA03045BD0C3F378
:1004B0000A54C1F30A552C44A4F2F3340194A0FB6E
:1004C0000254C1F3130141F48011C3F3130343F445
:1004D000801301FB024400FB034E840A970A44EA9E
:1004E000815447EA8357A4FB076802958D0A05FBF0
:1004F00007854FEA932C04FB0C542705029D4FEA15
:10050000065847EA1637B5EB08056EEB070C870E61
:10051000920E47EA811742EA8312A7FB0201B6EB6B
:100520000B0164EB00042B0D43EA0C335E1844EB23
:100530001C50DA465146E7FB0201C5F313044FEAAB
:100540000B3343EA14534FEA0432019C43EA060397
:10055000A4F10C040294009CCDE900B400F092F9DF
:1005600003B0BDE8F08F00200146F9E7C10F80EA33
:10057000E0700844CA079623002100F0F9B89623DA
:100580000022114600F0F4B800F0004220F00040D4
:10059000C10DC0F3160040F400007F2901DA0020ED
:1005A0007047962903DCC1F19601C84001E09639F5
:1005B0008840002AF4D04042704720F00040C10D2E
:1005C000C0F3160040F400007F2901DA00207047D4
:1005D000962903DCC1F19601C840704796398840DE
:1005E0007047C1F30A5210B5C1F3130140F2FF3353
:1005F00041F480119A4201DA002010BD40F23343E9
:100600009A42A2F2334203DC524200F086F810BD57
:10061000904010BD00F0004230F000400AD0C10D03
:1006200001F56071C0F3160042EA0151C2084007AB
:1006300011437047002001467047000030B5041E8A
:1006400071F1000404DB4FF00044404264EB01010F
:10065000141E73F1000405DB1C464FF000435242A8
:1006600063EB04038B4208BF824230BD30B5041EE9
:1006700071F1000404DB4FF00044404264EB0101DF
:10068000141E73F1000405DB1C464FF00043524278
:1006900063EB0403994208BF904230BD01F0004370
:1006A00030B421F0004150EA010206D00A0DA2F553
:1006B0006072C1F31301002A02DC30BC00207047D5
:1006C000440F44EAC104C100E01830BC00EBC25042
:1006D00000F045B8002801DBC0F10040002901DB33
:1006E000C1F1004181427047002801DBC0F10040A8
:1006F000002901DBC1F1004188427047202A04DB58
:10070000203A00FA02F1002070479140C2F1200324
:1007100020FA03F3194390407047202A04DB203A63
:1007200021FA02F00021704721FA02F3D040C2F111
:1007300020029140084319467047202A06DBCB1758
:10074000203A41FA02F043EAE07306E041FA02F38C
:10075000D040C2F120029140084319467047002959
:10076000A8BF7047401C490008BF20F00100704737
:1007700010B4B0FA80FC00FA0CF050EA010404BF97
:1007800010BC704749B1CCF1200421FA04F411FAED
:100790000CF118BF012121430843A3EB0C01CB1D31
:1007A0004FEA00614FEA102042BF002010BC7047A2
:1007B00000EBC35010440029A4BF10BC7047401C7C
:1007C000490008BF20F0010010BC7047F0B40028B9
:1007D00002DCF0BC00207047C0F3C751C0F3160024
:1007E00040F40000CA0701D14000491E3F2202EB3D
:1007F0006105002211464FF4000626FA01F3134466
:10080000D418844201D8001B1A464000491C1729FD
:10081000F3DD5100814202D24FF0FF3100E00021B0
:1008200002EBC550F0BCFFF79ABF10B541000CD0E9
:10083000C0F3C751962908DC7E2909DC06DB41029A
:1008400004D000F0004040F07E5010BD002010BDEC
:10085000C1F19604C4F1200100FA01F1E040FFF774
:100860007EFFA04010BD10B5141E73F1000408DA1D
:10087000401C41F1000192185B411A4301D120F064
:10088000010010BD2DE9F04D92469B4611B1B1FA21
:1008900081F202E0B0FA80F220329046FFF72EFF9C
:1008A00004460F4640EA0A0041EA0B0153465A4605
:1008B000084313D0114653EA010019D0C8F1400291
:1008C0005046FFF72AFF05460E4650465946424617
:1008D000FFF714FF084305D0012004E02046394605
:1008E000BDE8F08D0020054346EAE0762C4337430F
:1008F0000A986305E40AA0EB08000022FD0A44EA16
:1009000047540A3002D500200146E9E701051019D5
:100910006941DDE9084500196941BDE8F04DA2E7EC
:1009200010B500F0004420F00040C20DC0F31600E6
:1009300040F400007F2A07DA7D2A00DA7D22763A29
:1009400000FA02F1002008E0962A09DCA2F1760103
:1009500000FA01F1C2F19602D040FFF700FF01E07A
:10096000963A9040002C00D0404210BD064C074DF6
:1009700006E0E06840F0010394E80700984710346F
:10098000AC42F6D3FFF7D8FB20950008409500084D
:10099000420005D0C0F3C7525242914201DC002010
:1009A000704700EBC150704700BFFEE708B501215A
:1009B000082000F005FE03208DF8020010208DF8BD
:1009C00003000120ADF800006946094800F06CFB07
:1009D0000121074800F04DFC064890F8490000F05E
:1009E000010018B90121024800F043FC08BD0000D5
:1009F000000C01405410002010B5074890F8490041
:100A000000F0010020B10121044800F034FC00E0B6
:100A100010BD00BFFCE7000054100020000C014096
:100A200010B5202000F018F828B10348006880476E
:100A3000202000F003F810BD9C00002000F0805141
:100A400011B10349086001E00249486070470000A5
:100A5000040402400000024001460020002201F090
:100A6000805313B1054B1A6801E0054B1A6802EA7E
:100A700001030BB1012000E0002070470004024098
:100A8000000002407047000010B56FF0040000F055
:100A900097FF0A4800680A49B0FBF1F0094908705D
:100AA0000846007800EB4001C1EBC0104FF6FF7123
:100AB00001EAC0000449088010BD00000C000020BD
:100AC00000127A0020000020220000200146114A76
:100AD00012884A434FF0E0235A6100229A611A4675
:100AE000126942F001021A6100BF4FF0E022106962
:100AF00000F001021AB100F48032002AF5D04FF064
:100B0000E022126922F001024FF0E0231A61002274
:100B10009A6170472200002010B5344800780128FF
:100B20004CD033480078002848D103F071FC78B9E4
:100B30004FF4805000F064F94FF4804000F060F909
:100B40004FF4005000F05CF9282000F091FC10BD3B
:100B50004FF4805000F05AF960B14FF4805000F02B
:100B60004FF92448007840F001002249087022A083
:100B700004F04CFE4FF4005000F048F960B14FF41F
:100B8000005000F03DF91B48007840F00200194980
:100B900008701CA004F03AFE4FF4804000F036F9D3
:100BA00060B14FF4804000F02BF91248007840F01B
:100BB00004001049087016A004F028FE012017490F
:100BC00008700020164908704FF4805000F018F9A2
:100BD0004FF4804000F014F94FF4005000F010F989
:100BE000282000F045FC00BFB1E70000A80000206D
:100BF0000200002047000020585F4C494D49540D29
:100C00000A000000595F4C494D49540D0A0000008C
:100C10005A5F4C494D49540D0A000000490000201C
:100C2000480000207047000010B5D82000F0E8F818
:100C300008F0C8F804464CB304F0020018B10120D3
:100C4000134908701FE004F0080030B11148007823
:100C500040F002000F49087015E004F0040030B1C4
:100C60000C48007840F008000A4908700BE004F0D6
:100C7000010040B10748007840F0200005490870A5
:100C800005A004F0C3FD092000F0FEFB10BD00002C
:100C900078000020010000205341464554595F442C
:100CA0004F4F520D0A00000010B5D82000F0A8F8F0
:100CB00008F088F804464CB304F0020018B1012093
:100CC000134908701FE004F0080030B111480078A3
:100CD00040F002000F49087015E004F0040030B144
:100CE0000C48007840F008000A4908700BE004F056
:100CF000010040B10748007840F020000549087025
:100D000005A004F083FD0A2000F0BEFB10BD00002A
:100D100078000020010000205341464554595F44AB
:100D20004F4F520D0A00000010B54FF4807000F0D4
:100D30006DF8C8B14FF4807000F062F84FF4807124
:100D4000244800F089FA58B923A004F05FFD04207C
:100D500024490870002003F0C9FF012022490870CF
:100D6000172000F091FB10BDD82000F049F808F0E2
:100D700029F804465CB304F0020028B101201949A7
:100D8000887004F09DF81FE004F0080030B11748A7
:100D9000007840F002001549087015E004F00400E6
:100DA00030B11248007840F00800104908700BE09C
:100DB00004F0010040B10D48007840F020000B49DC
:100DC00008700BA004F022FD172000F05DFB00BFAF
:100DD000C9E70000000C0140486F6D696E670D0A9D
:100DE00000000000A8000020790000200100002081
:100DF0005341464554595F444F4F520D0A0000007D
:100E000001490860704700001404014001460020B9
:100E10000022074B1B6803EA0102054B14331B68D1
:100E20000B4013B10AB1012000E000207047000020
:100E300000040140002123498279002A3AD00A4661
:100E4000126803689A430B461A600A1D1268036809
:100E50009A430B1D1A60027911440A6803681A4309
:100E60000A60184A0832126803689A43154B08331F
:100E70001A601A1D126803689A43124B0C331A60E9
:100E80004279102A0ED11A1F126803681A430D4BBB
:100E900008331A601A1D126803681A43094B0C3391
:100EA0001A600DE00749427911440A6803681A4341
:100EB0000A6005E0027911440A6803689A430A60EF
:100EC000704700000004014030B5044604254FF48B
:100ED000302000F0B5F80546042D17D10C48006904
:100EE00040F002000A49086108464461006940F088
:100EF000400008614FF4302000F0A2F80546044895
:100F0000006941F6FD71084001490861284630BD7D
:100F10000020024004200B49C96801F0010109B119
:100F200001200EE00749C96801F0040109B102205F
:100F300007E00449C96801F0100109B1032000E08D
:100F400004207047002002400549096821F0100183
:100F5000034A11601146096801431160704700009F
:100F60000020024070B504460D460426F00200F051
:100F700067F80646042E11D10948006940F00100C7
:100F8000074908612580F00200F05AF80646044837
:100F9000006941F6FE71084001490861304670BDA4
:100FA0000020024078B506460C460425002000903B
:100FB000E80200F045F80546042D24D113480069E5
:100FC00040F00100114908613480E80200F038F86F
:100FD0000546042D10D1B01C0090200C009908800B
:100FE000E80200F02DF805460848006941F6FE7158
:100FF00008400649086106E00448006941F6FE71B0
:10100000084002490861284678BD000000200240DF
:1010100001460020034A106800F0380008431060C1
:10102000704700000020024002480349486003481E
:10103000486070472301674500200240AB89EFCD2F
:1010400000B502460423FFF765FF034603E0FFF700
:1010500061FF0346521E012B01D1002AF7D102B9CC
:101060000523184600BD000030B500228B071C0F79
:101070000F2303FA04F20B4B8C1053F824309343E4
:10108000084C8D1044F8253023468C1053F824303A
:101090008C07240F00FA04F42343024C8D1044F80B
:1010A000253030BD080001402DE9F0410246002501
:1010B0000026002000230024002791F803C00CF034
:1010C0000F0591F803C00CF0100CBCF1000F03D019
:1010D00091F802C04CEA050591F800C0BCF1000F80
:1010E00031D0146800202BE04FF0010C0CFA00F313
:1010F000B1F800C00CEA03069E4220D183004FF0F5
:101100000F0C0CFA03F7BC4305FA03FC4CEA040489
:1011100091F803C0BCF1280F06D14FF0010C0CFA76
:1011200000FCC2F814C00AE091F803C0BCF1480FFB
:1011300005D14FF0010C0CFA00FCC2F810C0401CA5
:101140000828D1D31460B1F800C0BCF1FF0F34DD22
:10115000546800202EE000F1080C4FF0010808FA56
:101160000CF3B1F800C00CEA03069E4221D18300C3
:101170004FF00F0C0CFA03F7BC4305FA03FC4CEAE2
:10118000040491F803C0BCF1280F05D100F1080C4C
:1011900008FA0CF8C2F8148091F803C0BCF1480FAB
:1011A00007D100F1080C4FF0010808FA0CF8C2F85A
:1011B0001080401C0828CED35460BDE8F0810000A8
:1011C000F0B50A46002300240021002500F0004667
:1011D000B6F1004F02D11D4EF16901E01B4E71685E
:1011E000C0F3034583B200F44016B6F5401F08D1A2
:1011F00021F07061154E766826F07066134F7E60A0
:1012000012E000F48016B6F5801F06D1032606FA18
:1012100005F4A14341F0706106E0460D360103FA82
:1012200006F6B14341F0706122B1460D360103FA72
:1012300006F6314300F00046B6F1004F02D1034EEE
:10124000F16101E0014E7160F0BD0000000001405D
:101250000146886880B270470246002093680B40C0
:101260000BB1012000E0002070470146C86880B241
:10127000704741617047016170470AB1016100E048
:101280004161704700BFFEE710B504461148007881
:10129000F0B940211048FFF7DFFF68B90F48006838
:1012A000A04203D301200B49087011E00B480068ED
:1012B000401C0A4908600BE00848006828B107484C
:1012C0000068401E0549086002E0002004490870DB
:1012D00010BD000070000020000C01406C000020D8
:1012E0007800002008B50121082000F069F90121EB
:1012F000052000F065F901211248FFF761FF4FF466
:101300000040ADF8000010208DF8030003208DF898
:10131000020069460C48FFF7C7FE4FF400410A4837
:10132000FFF7A9FF4FF40060ADF8000048208DF8EA
:10133000030003208DF8020069460348FFF7B4FE5E
:1013400008BD0000000230000008014008B501217E
:10135000102000F035F903208DF8020010208DF8E0
:1013600003008002ADF8000069460A48FFF79CFEC2
:10137000094890F8490000F0200020B94FF480415E
:101380000448FFF776FF4FF480410248FFF771FFF2
:1013900008BD0000001001405410002010B5124894
:1013A00090F8490000F0100008B9002010BD04F0CA
:1013B000F7FF0E49097888420BD00D48007840B1FC
:1013C0000C480078401C0B49087004F0E9FF0749FD
:1013D000087008480078052803DB00F037F8012082
:1013E000E4E70020E2E70000541000204500002060
:1013F000440000204300002010B50F4890F8490039
:1014000000F0100018B900200C49087010BD0C48FD
:10141000007868B904F0C4FF0A490870012008493F
:10142000087004F0BDFF08490870002003490870E7
:1014300003480078EAE70000541000204300002031
:101440004400002042000020450000200020034905
:101450000870034908700349087070474300002072
:10146000440000204200002000BFFEE7704700005B
:1014700000F01F0201219140024A430942F8231063
:101480007047000080E200E000F01F02012191405F
:10149000024A430942F823107047000080E200E04E
:1014A00000F01F02012191404209920002F1E02266
:1014B000C2F800117047000070B5002100230F2210
:1014C000C47804B3154C246804F4E064C4F5E06403
:1014D000210AC1F10403CA40447804FA03F1847874
:1014E0001440214309010E4C0678A155047804F0FC
:1014F0001F050124AC4005786D11AD0005F1E02514
:10150000C5F8004109E0047804F01F050124AC404F
:10151000044D0678761145F8264070BD0CED00E0CC
:1015200000E400E080E100E002490143024A11606A
:10153000704700000000FA050CED00E010B500282F
:1015400007DA0A07140E054A00F00F031B1FD454D4
:1015500003E00A07130E024A135410BD18ED00E011
:1015600000E400E07047000001460020034A506894
:1015700020F44040084350607047000000100240D3
:1015800029B1064A52690243044B5A6104E0034AF6
:1015900052698243014B5A617047000000100240BB
:1015A00029B1064AD2690243044BDA6104E0034AD6
:1015B000D2698243014BDA6170470000001002409B
:1015C00029B1064A92690243044B9A6104E0034A36
:1015D00092698243014B9A617047000000100240FB
:1015E00010B500F03BF84FF4803000F0F9F800F04F
:1015F00055F90446012C27D1002000F0E5F8002021
:1016000000F020F9A00200F011F9E003FFF7ACFFB1
:101610000220FFF7FDFC1020FFF796FC4FF4E011CD
:10162000200400F021F9012000F018F900BF392052
:1016300000F0A4F80028FAD0022000F023F900BF3F
:1016400000F0BAF80828FBD101217C20FFF7B8FF91
:1016500001210802FFF794FF10BD00000F48006849
:1016600040F001000D490860084640680C490840F8
:101670000A494860084600680A4908400749086066
:101680000846006820F4802008600846406820F47E
:10169000FE0048604FF41F00886070470010024051
:1016A0000000FFF8FFFFF6FE30B500210022002405
:1016B00000232D4D6D6805F00C0121B1042905D0E2
:1016C000082923D105E0294D056022E0274D05605A
:1016D0001FE0254D6D6805F47012234D6D6805F40B
:1016E0008034022505EB92421CB9214D554305601B
:1016F0000BE01D4D6D6805F400351DB11C4D5543C3
:10170000056002E0194D5543056002E0174D056084
:1017100000BF00BF144D6D6805F0F0010909154DBB
:101720006B5C0568DD4045600F4D6D6805F4E06158
:10173000090A104D6B5C4568DD4085600A4D6D6897
:1017400005F46051C90A0B4D6B5C4568DD40C5600E
:10175000054D6D6805F44041890B074D6B5CC5680C
:10176000B5FBF3F5056130BD0010024000127A00B0
:1017700000093D00240000203400002010B501467F
:101780000022002300204A11012A02D1094C2368BB
:1017900006E0022A02D1074C236A01E0054C636A85
:1017A00001F01F02012494401C400CB1012000E014
:1017B000002010BD001002400248406800F00C00FC
:1017C000704700000010024001460020034A5068A4
:1017D00020F0F00008435060704700000010024005
:1017E0001149096821F480310F4A116011460968D6
:1017F00021F480211160B0F5803F03D0B0F5802F37
:101800000ED106E00849096841F48031064A1160AA
:1018100007E00549096841F4A021034A116000E08E
:1018200000BF00BF704700000010024001460020CA
:10183000034A506820F4E06008435060704700009D
:101840000010024001460020034A506820F4605016
:1018500040EAC1005060704700100240014908662C
:10186000704700000000424202460020044B5868C6
:1018700020F47C1042EA01031843014B5860704782
:101880000010024001460020034A506820F0030087
:1018900008435060704700000010024038B5002037
:1018A00000900024002500BF3120FFF767FF0546A8
:1018B0000098401C00900098B0F5A06F01D0002D5A
:1018C000F2D03120FFF75AFF08B1012400E00024D4
:1018D000204638BD704710B500F002F810BD00007A
:1018E0000CB50020019000903348006840F480302F
:1018F0003149086000BF3048006800F400300090B3
:101900000198401C0190009818B90198B0F5A06F9B
:10191000F1D12948006800F4003010B10120009096
:1019200001E0002000900098012843D1234800687E
:1019300040F01000214908600846006820F00300CC
:1019400008600846006840F0020008601A484068D5
:10195000194948600846406848600846406840F4B5
:10196000806048600846406820F47C104860084663
:10197000406840F4E81048600846006840F0807015
:10198000086000BF0C48006800F000700028F9D023
:101990000948406820F0030007494860084640684D
:1019A00040F00200486000BF0348406800F00C00AF
:1019B0000828F9D10CBD00000010024000200240B0
:1019C000042808D14FF0E021096941F004014FF0EB
:1019D000E022116107E04FF0E021096921F00401E4
:1019E0004FF0E022116170477047000010B51348B6
:1019F000006840F00100114908600846406810493D
:101A000008400E494860084600680E4908400B49E6
:101A100008600846006820F4802008600846406896
:101A200020F4FE0048604FF41F008860FFF753FF6A
:101A30004FF000600449086010BD00000010024033
:101A40000000FFF8FFFFF6FE08ED00E00D4800681B
:101A500020F054000C49097801F054010843094969
:101A600008600A48008820F00100084908804FF605
:101A7000FC70064910310880002004492431088098
:101A8000704700000C0801405C000020000400408A
:101A900010B5B848008800F0010040B14FF6FE7064
:101AA000B44908800020B3491431088000E010BD1B
:101AB000B148007800B1FAE7B048006820F0A8000B
:101AC000AF49897C01F0A8010843AC4908604FF692
:101AD000FC70AC490880A948006820F05400A8496F
:101AE000098A0843A5490860A6481038008840F0D4
:101AF0000100A4491039088001209F490870A048BE
:101B0000806A002866D1A0480078A04909788842F8
:101B100070D09F489D49097800EBC10098498862C0
:101B20000846806A4088401E92491C3108809448CB
:101B3000806A008892490884084690F82200896AE1
:101B40000979884216D08E48806A00798C4981F8DC
:101B50002200084690F8220000EB80008D4901EB3E
:101B60008000874948620846406AC068400888602B
:101B7000486008608248406A008A8749098848406E
:101B80007F4948820846406A0068896A4979C840A6
:101B90007B4948610846406A4068896A4979C8407B
:101BA000774988610846406A8068896A4979C840EF
:101BB0007349C8617948C06CC82814D10846806A46
:101BC0008079482807D1896A897901EB41010801A8
:101BD00006F004F91BE06A49896A8979C1EB0110B2
:101BE00006F0FCF813E06649896A887906F0F6F891
:101BF0000DE0FFE706F0CAF96148406A807C10B149
:101C0000002006F0EBF8042007F0D0FB4FE7644813
:101C10000078012801D103F07FFE00205849088296
:101C20000846006849690844554908600846006844
:101C3000496AC96888421DD95148008A40F040006D
:101C40004F49088208460068496AC968401A4C49E9
:101C500008600846406A007C00F0800028B15148C6
:101C60000068401E4F49086004E04E480068401C70
:101C70004C490860424841688069084440494860CE
:101C800008464068496AC96888421DD93C48008AAC
:101C900040F010003A49088208464068496AC9681D
:101CA000401A374948600846406A007C00F020002E
:101CB00028B13C484068401E3A49486004E0394831
:101CC0004068401C374948602D488168C069084415
:101CD0002B49886008468068496AC96888421DD9CE
:101CE0002748008A40F00400254908820846806899
:101CF000496AC968401A224988600846406A007CDF
:101D000000F0080028B127488068401E25498860F7
:101D100004E024488068401C2249886022480078FA
:101D2000042806D11648008A1F4909890840144929
:101D300008821348008C401E114908840846008C14
:101D400060B900210E4A916210490978491CC8B255
:101D50000A2800D100200D49087000BF0848008AF9
:101D60001249098848400649088200200249087043
:101D700000BF9CE6100C0040600000200C080140F1
:101D8000BC11002010040040590000205800002021
:101D90006C110020B81000205E00002054100020BC
:101DA00000000020BC000020A80000205C000020F3
:101DB00010B500240121414800F007F900287CD02B
:101DC00001213E4800F092F83D480068401C3C4923
:101DD00008603C480078012804D13B480078401C4A
:101DE000394908703748007801281AD136480078F8
:101DF000012816DD3548007898B935480078012863
:101E00000FD03448007860B902F002FB48B10020DE
:101E10002D4908702B49087003F052F8012007F093
:101E2000B3FA2D480078462802D100202A490870CC
:101E300029480078401C28490870284800783C2828
:101E400002D100202549087024480078401C23490D
:101E50000870234800782D2802D1002020490870FE
:101E60001F480078401C1E4908701E4800686428FE
:101E700004D100201C4908601A4908601A4800680B
:101E8000642807D117480068401C164908600020E4
:101E90001549086014480068401C13490860084848
:101EA0000068401C06490860084600684FF6FF714C
:101EB000884202D100200249086010BD0010004095
:101EC00074000020490000208D0000204800002000
:101ED000A8000020020000208800002089000020C7
:101EE0008A0000208400002080000020CA43028273
:101EF000704721B1028842F00102028004E00288AA
:101F00004FF6FE731A400280704700002DE9FF4132
:101F100004460F4615461E46781E80B2ADF80800EE
:101F2000681E80B2ADF804000020ADF80A00ADF8DC
:101F3000060001A9204600F0B9F801212046FFF76C
:101F4000D5FF01221146204600F050F8012120461D
:101F5000FFF7CFFF4FF44070FFF7E6FA10488442D6
:101F600003D132208DF800000CE00E48844203D1EA
:101F70001D208DF8000005E00B48844202D11E2090
:101F80008DF800008DF8016000208DF8020001201E
:101F90008DF803006846FFF78FFABDE8FF81000067
:101FA000000C0040000400400008004031B1B0F8CF
:101FB000442042F40042A0F8442005E0B0F8442058
:101FC000C2F30E02A0F84420704730B5024600204C
:101FD00000230024158A05EA0103958905EA010416
:101FE00013B10CB1012000E0002030BD1AB183898B
:101FF0000B43838102E083898B4383817047000018
:1020000070B5002400220023058C4FF6FE76354083
:102010000584028C8388048B4FF68F752C40B51E87
:102020002C400D882C43751E2A400D892A434D886B
:102030002A43144DA8420BD0134DA84208D0134D8B
:10204000A84205D0124DA84202D0124DA84213D189
:102050004FF6F7752A404D892A434FF6FB752A4003
:102060008D882A434FF6FF652B404FF6FF552B40D6
:102070008D892B43CD892B4383800483CD8885862E
:10208000028470BD002C014000340140004001403A
:1020900000440140004801400A460021018B4FF6F0
:1020A000F773194011430183704700000022028832
:1020B0001D4B98420ED01D4B98420BD0B0F1804F73
:1020C00008D01B4B984205D01A4B984202D01A4BAD
:1020D000984204D14FF68F731A404B881A43174B1E
:1020E000984207D0164B984204D04FF6FF431A404F
:1020F000CB881A4302808B8883850B8803850A4B23
:1021000098420BD0094B984208D00E4B984205D00C
:102110000D4B984202D00D4B984201D10B7A0386A9
:102120000123838270470000002C014000340140ED
:102130000004004000080040000C00400010004077
:1021400000140040004001400044014000480140AC
:102150004FF6FF71818000210180C18041800172B2
:102160007047000038B5524800880090009800F091
:10217000200000286FD04E48001D0088C4B2182CE3
:1021800006D0212C0FD03F2C05D07E2C0FD106E09D
:1021900002F096FE83E0012007F008F97FE00220BC
:1021A00007F004F97BE0082007F000F977E07F2CC6
:1021B00063DDA4F184001E285ED2DFE800F00F1377
:1021C0005D5D5D5D5D5D5D5D5D5D1C2024282C3089
:1021D00034385D3C4044484D515D5559202007F04E
:1021E000E5F849E03348007800F0200010B14020C5
:1021F00007F0DCF840E0012007F0CEF83CE00220D8
:1022000007F0CAF838E0042007F0C6F834E00820E8
:1022100007F0C2F830E0102007F0BEF82CE02020D4
:1022200007F0BAF828E0402007F0B6F824E0802054
:1022300007F0B2F820E0012007F09CF81CE0022033
:1022400007F098F818E0042007F094F814E008204C
:1022500007F090F810E029E0102007F08BF80BE071
:10226000202007F087F807E0402007F083F803E01C
:10227000802007F07FF800BF10E00F480078401C76
:10228000C5B2FE2D00D100250C480078854205D04E
:102290000B480949097844540748057000BF00BF3E
:1022A0000348008820F020000149088038BD000064
:1022B00000380140A80000203C0000203D00002024
:1022C0005202002010B540F22771144800F049F87E
:1022D00018B31348007813490978884212D012487D
:1022E000104A1278815C0D4800F0F6F80D4800782D
:1022F000401C0C49087008460078412808D100208D
:10230000087005E0002240F22771044800F053F8FD
:1023100040F22771014800F009F810BD0048004064
:102320004000002041000020D003002010B5002212
:10233000002340F66A14A14200D100BF0A12012412
:102340009440A3B2DC43048010BD21B1828942F4E1
:102350000052828104E082894DF6FF731A40828127
:10236000704770B50246002400230025002040F687
:102370006A16B14200D100BFC1F3421501F01F033C
:10238000012606FA03F3012D02D19689334006E0B7
:10239000022D02D1168A334001E0968A33400C1296
:1023A000012606FA04F41688344013B10CB101205A
:1023B00000E0002070BDF0B5034600240026002593
:1023C000002040F66A17B94200D100BF1846C1F399
:1023D000421401F01F06012707FA06F5012C01D16E
:1023E0000C3004E0022C01D1103000E014301AB19E
:1023F00007682F43076002E00768AF430760F0BD3E
:102400002DE9F04786B005460E460024A24600BFDF
:10241000A1460027B08900B100BF2F462C8A4CF698
:10242000FF700440F08804432C82AC894EF6F31010
:102430000440B08831890843718908430443AC8162
:10244000AC8A4FF6FF400440B0890443AC8201A837
:10245000FFF72AF91F48874202D1DDF810A001E0FA
:10246000DDF80CA0A88900F4004040B10AEBCA00D6
:1024700000EB0A1031684900B0FBF1F807E00AEB05
:10248000CA0000EB0A1031688900B0FBF1F8642043
:10249000B8FBF0F004012009642101FB1089A88930
:1024A00000F4004040B1322000EBC900B0FBF1F075
:1024B00000F00700044308E0322000EB091064211B
:1024C000B0FBF1F000F00F0004432C8106B0BDE832
:1024D000F087000000380140C1F308028280704795
:1024E00000210020704700BFFEE74100080218BF2E
:1024F00004200A0E18BF40F001004FF07F4232EA7C
:10250000010108BF40F00200012808BF0520704704
:102510000121FEF73DBAFDF748BE00210846FDF750
:10252000CEBE6FF05E010807FEF732BA2DE9F04D1E
:102530000D4614464FF07F41B1EB440F9EBF4FF064
:10254000FF312960BDE8F08D4FF0004040EA0421E2
:10255000C4F3C750783810F01F024A4B4FEA601C92
:10256000C2F120067B44C4F3C750A0F178004FEAC3
:10257000601003EB800053F82C3008BFD0E901C68F
:1025800012D0D0F804C093402CFA06F73B4387687A
:102590000CFA02FC27FA06F8C06807FA02F2F040CB
:1025A0004CEA080C42EA0006A3FB0132ACFB01C076
:1025B000A6FB016101EB0C068E4234BF4FF0010C0B
:1025C0004FF0000CC1186144BCF1000F02D08142F1
:1025D00002D903E0814201D2012000E00020104432
:1025E00000F120024FEA92188006CA0C40EA4230FD
:1025F0004F03C5F80080FDF7B9FF82463846FDF766
:10260000BEFF6FF01201FEF7C3F907463046FDF733
:10261000B6FF6FF02501FEF7BBF9834639465046F9
:10262000FDF7C3FD5946FDF7C0FD00F500666FF3E9
:102630000B0651463046FDF70AFE3946FDF707FE08
:102640005946FDF707FE1049FDF707FE07460F49FB
:102650003046FDF702FE3946FDF7A7FD07460C4957
:102660003046FDF7FAFD3946FDF79FFD14F0004FA7
:1026700008BFBDE8F08DC8F1805180F000402960AE
:10268000BDE8F08D4C6F0000DB0FC92F22AAFD2999
:102690000000C92F02E008C8121F08C1002AFAD1A1
:1026A00070477047002001E001C1121F002AFBD1D2
:1026B000704700000149086070470000A400002036
:1026C0002DE9F0474FF0684202EB40030C46054607
:1026D000B3F1654F3CBF02EB4102B2F1654F80F0B0
:1026E000CD8000BFC0F3C752C1F3C753D21A1B2A13
:1026F00006DD10F0004F14BF87488848BDE8F0871A
:1027000012F11A0F2FDA11F0004F06D010F0004F1F
:102710000CBF83488348BDE8F08721462846FDF773
:10272000CEFD0646FFF7E1FE042808BFFFF7F9FEDD
:102730002846FFF7DAFE05462046FFF7D6FE044698
:102740003046FFF7D2FE042D18BF052D08D1042C0A
:1027500018BF052C04D1002804BF0220FFF7AAFFF0
:102760003046BDE8F0874200B2EB410F25D910F0AA
:10277000004F19BF6C4F6D4E6D4F6E4E224685F067
:10278000004415460A4680F0004110460A1A5200DD
:10279000B2F1807F3ED248406749DFF8A0A110F037
:1027A000004F18D04FF03F483846FDF750FD074620
:1027B00051463046FDF74BFD17E011F0004F04BFC6
:1027C00000263746E2D010F0004F19BF5C4F5D4E37
:1027D0005D4F5E4EDAE74FF07C583846FDF7E5FC7A
:1027E000074651463046FDF7E0FC0646414628467E
:1027F000FDF733FD2146FDF7D8FC824621464046D1
:10280000FDF72BFD2946FDF725FD5146FDF757FD48
:10281000044604E021462846FDF751FD04460146E2
:10282000FDF71BFD80464A49FDF717FD4949FDF7B5
:10283000BCFC4146FDF711FD4749FDF7B6FC41469A
:10284000FDF70BFD4549FDF7B0FC4146FDF705FDE1
:102850004349FDF7AAFC054641462046FDF7FDFC2D
:102860002946FDF7FAFC3146FDF79FFC2146FDF7AE
:102870009CFC3946BDE8F047FDF797BC4FF07F421E
:10288000B2EB400F28BFB2EB410F03D2BDE8F047D7
:10289000FFF741BE40EA01035B0008BF44F0FF417F
:1028A0000AD0B2EB400F08BFB2EB410F06D125F0C2
:1028B000804024F0804105460C4613E7B2EB400F00
:1028C00012BF5FEA410345F0FF4004F000413FF4CE
:1028D00009AFB2EB410F12BF5FEA400205F00040C2
:1028E00044F0FF413FF4FEAE4A0092EA40033FF558
:1028F000F9AE002AACBF4FF09F464FF03E5631462E
:10290000FDF7ABFC054631462046FDF7A6FC044624
:1029100028462146E6E60000DB0FC9BFDB0FC93FB2
:10292000DB0F4940DB0F49C00000C9BF22AAFDB937
:102930000000C93F22AAFD390060ED3EC30ACE3730
:10294000000049C022AA7DBA0000494022AA7D3A6F
:102950002DAD65BD8FB8D53D0FB511BE61C84C3EDC
:10296000A8AAAABE2DE9F041C0F3C751A1F17F0585
:102970000446172DA8BFBDE8F0814FF07F471549E9
:10298000002D0EDAFDF711FCB7EB400F1ED3002827
:102990001CDD002CC8BF4FF07E54B8BF4FF0004480
:1029A00014E00D4A22FA05F6344208BFBDE8F08172
:1029B000FDF7FBFBB7EB400F08D3002806DD002C2A
:1029C00003DD4FF40000E8400444B4432046BDE872
:1029D000F0810000CAF24971FFFF7F000020024928
:1029E00008600249086070478000002084000020D1
:1029F0002DE9F04105460026002412E055F8240098
:102A00000021FDF767FE0AD055F8241055F8240080
:102A1000FDF723FC80463146FDF7C7FB0646601CE8
:102A2000C4B2032CEADB304605F05AFA06463146BA
:102A30004FF07E50FDF743FC0746002408E055F8B0
:102A400024003946FDF709FC45F82400601CC4B297
:102A5000032CF4DB3046BDE8F081000010B5002403
:102A60000848FEF702FC00F0080008B144F0010439
:102A70000448FEF7FAFB00F0100008B144F002042D
:102A8000204610BD0010014008B501211020FEF7BE
:102A900097FD03208DF8020010208DF80300082018
:102AA000ADF8000069460B48FEF7FEFA0121102040
:102AB000FEF786FD03208DF8020010208DF803003C
:102AC000ADF8000069460348FEF7EEFA00F026F87C
:102AD00008BD00000010014010B504460D484078C4
:102AE00000B110BD14B900F019F80DE004F0400079
:102AF00018B108210848FEF7BEFB04F0800018B1A9
:102B000010210548FEF7B7FB00200249887300BF7B
:102B1000E7E70000A80000200010014010B50821E0
:102B20000348FEF7A6FB10210148FEF7A2FB10BDEB
:102B30000010014010B5044605480078022800D175
:102B400010BD02F00BFF2046FFF7C6FF00BFF7E7FE
:102B5000A80000202DE9F843044602464F48694684
:102B6000B0EB420F09D94FF0E640B0EB420F94BFF3
:102B700000204FF0FF30009030E0494B22F0004041
:102B8000834271D947492046FDF767FBFDF74DFEAB
:102B90008046FDF7F9FC00F00300009042494046F2
:102BA000FDF75BFB054641494046FDF756FB0646EF
:102BB0003F494046FDF751FB07463E494046FDF779
:102BC0004CFB2146FDF746FB3946FDF740FB3146FD
:102BD000FDF73DFB2946FDF73AFB04462546009CE0
:102BE000002C45DB294614F0010F08461CD0FDF7E8
:102BF00034FB06463049FDF730FB3049FDF72AFB30
:102C00003146FDF72AFB2E49FDF7CFFA3146FDF795
:102C100024FB2946FDF721FB2946FDF7C6FA14F0EF
:102C2000020F1CD0BDE8F883FDF717FB05462549C8
:102C3000FDF713FB2449FDF7B8FA2946FDF70DFB14
:102C40002249FDF7B2FA2946FDF707FB4FF07E5106
:102C5000FDF7ABFA14F0020F08BFBDE8F88380F06F
:102C60000040BDE8F883FFE71046FFF75FFCB4E7DC
:102C70006800B0F17F4F3CBF4FF07E50BDE8F88355
:102C800007D14FF00100FFF715FDBDE8F843FFF74E
:102C900044BC2846BDE8F843FFF73ABCB61F927E15
:102CA000490E494683F9223F1A61342C0020A23391
:102CB00000A0FD390000C93F336D4C39DA82083C71
:102CC000A0AA2ABEB93AB2BACA9F2A3DDDFFFFBE0A
:102CD0002DE9F04105460C4613492846FDF7BDFA9B
:102CE0008046FFF73FFE0746FDF767FC86B213E01C
:102CF0000E48407808B1BDE8F08114B903F09EF9A0
:102D000007E002F053FF0948C07800F0020000B16C
:102D1000F1E73220FDF7DAFE301EA6F101018EB296
:102D2000E6DC00BFE7E700000000A041A8000020AB
:102D30002DE9F041164D174C4FF400660427284644
:102D4000FEF7C2F80746042F01D0BDE8F0811AE073
:102D500020884FF6FF71884205D034F8021B2846C0
:102D6000FEF700F900E0A41C20884FF6FF718842AE
:102D700005D034F8021BA81CFEF7F4F800E0A41CF0
:102D8000301F86B22D1D002EE2DC00BFDDE7000003
:102D900000F001081104002001460148405C704722
:102DA0001104002000200E4900BF05E00D4A825C9E
:102DB00001F8012B421C90B2B0F5806FF6DB084A97
:102DC00012780A2A0AD00649002004E0FF2201F8FE
:102DD000012B421C90B2B0F5806FF7DB704700000A
:102DE0001104002000F00108014A1154704700004E
:102DF000110400202DE9F041C1F30A52A2F2FF367E
:102E00002F4A304B0D460446142E2FDA002E12DACC
:102E1000FDF793FA00221346FDF728FC4CD2002D53
:102E2000A4BF0024254647DA25F00040204318BF00
:102E3000254D41D018E0DFF894C02CFA06F705EADA
:102E4000070C5CEA040C08BFBDE8F081FDF775FAD9
:102E500000221346FDF70AFC2ED2002D03DA4FF4B0
:102E60008010F0400544BD43002425E0332EC8BF48
:102E7000BDE8F081A6F1140C4FF0FF3727FA0CF7EC
:102E80003C4208BFBDE8F081FDF7FBFA0022134683
:102E9000FDF7ECFB10D2002D0DDA142E08BF6D1CCF
:102EA00009D0C6F13400012101FA00F02044A0420B
:102EB00038BF6D1C0446BC4329462046BDE8F0815E
:102EC0009C7500883CE4377E0000F0BFFFFF0F00D8
:102ED0002DE9F041C0F3C751A1F17F050446172D3C
:102EE000A8BFBDE8F0814FF07F471549002D0FDAEC
:102EF000FDF75BF9B7EB400F1FD300281DDD002C59
:102F0000A8BF002419DAB4F1004F18BF0D4C14E02B
:102F10000D4A22FA05F6344208BFBDE8F081FDF7FC
:102F200044F9B7EB400F08D3002806DD002C03DA84
:102F30004FF40000E8400444B4432046BDE8F0816B
:102F4000CAF24971000080BFFFFF7F0001B5A2B047
:102F50004021F748FDF711F9F549491CF548026889
:102F60000A6042684A6002890A81807A8872002079
:102F700021901D901C901B901A90199018902298E7
:102F80000078242809D1189840F0010018900120F9
:102F9000491E48700021E64881700020139012906D
:102FA000189800F0010010B10320169001E00020F5
:102FB000169095E29DF858102298405C159015984F
:102FC000412802DB15985A2802DD012023B000BDFC
:102FD0009DF85800401CC0B2169014AA16A9229859
:102FE00003F0E4F908B90220F0E7149806F0E8F9D4
:102FF0000990FDF7E2FAC0B213901398FDF7BFFAFB
:1030000007901499FDF726F9CB490890FDF725F9AB
:10301000099001F0CFFB80B212901598472802D09A
:103020004D2873D130E113982B2870D024DC12285E
:103030006ED010DC032873D006DC00286DD0012888
:103040006CD0022868D16AE0042840D00A2832D027
:103050001128F7D195E01C282ED006DC13287DD04E
:1030600014287CD01528EDD1B8E01E2825D02628BC
:1030700057D02828E6D1BAE03B2871D00ADCA0F16D
:1030800031000A2848D2DFE800F0B6E5E5E523D1B3
:10309000D2D3D4D55B287FD006DC3D286FD0502812
:1030A00046D05A28CED176E05C2807D05D2867D07C
:1030B0005E28C7D188E000BF00BF00BF129828B9C2
:1030C000219808B1182081E70120219000BF00BF9E
:1030D0000020179096491398087013981C2805D063
:1030E00013981E2802D013985C280ED1129820B194
:1030F00012980A2801D0142068E78D4801781298A8
:1031000008448B49087000201290A5E039E171E075
:1031100038E005E001E001E09CE000BF00BF00BF37
:1031200000BF219808B1182050E70220219000BF6D
:10313000012017907E4913984870139826281CD1B7
:10314000129814280DD012981E280AD012982828F8
:1031500007D01298322804D0142037E713E03CE05F
:1031600069E00A21129890FBF1F0643070494978C7
:1031700008446F494870002012906DE00CE062E056
:1031800021E000BF00BF0220179013981138C1B290
:103190006748417160E000BF129838B9032017906A
:1031A00013985A38C1B2624801710BE0042017909D
:1031B00012980A2802D113985A2801D1142005E741
:1031C0000020129048E000BF052017901398C0F12E
:1031D0005E00C1B2564881703EE000BF06201790E5
:1031E0001398C0F11500C1B25148C17034E00720F6
:1031F000179031E000BF08201790219808B11820DF
:10320000E4E6032021901398312803D10021484897
:10321000817108E012980A2803D101214448817184
:1032200001E01420D2E60020129015E000BF00BF9C
:1032300000BF00BF00BF0920179013983638C1B2F5
:103240003B48C17108E00A201790129808B1142079
:10325000BCE601E01420B9E600BF1298002801DDA9
:103260001720B3E60121179801FA00F01A990840D7
:1032700008B11520AAE60121179801FA00F01A9961
:10328000084380B21A902AE11298002801DD172025
:103290009CE61398052827D006DC05285CD2DFE8D9
:1032A00000F00C0D0E212200072835D0082834D05C
:1032B000092833D01E284FD102E000BF00BF00BF55
:1032C0000B201790139810B1012805D103E00321BA
:1032D0001748017204E003E015491398087200BF13
:1032E00000BF3BE000BF00BF0C20179013980328DD
:1032F00004D0042806D005280CD107E010210C4882
:10330000817207E020210A48817203E00021084809
:10331000817200BF00BF21E000BF00BF0D201790E9
:10332000139807280AD008280CD0092812D10DE0DC
:1033300058080020140800200000C8428021FB48E3
:10334000417207E04021F948417203E00021F7484B
:10335000417200BF00BF01E0142037E600BF012129
:10336000179801FA00F01A99084008B115202DE6C7
:103370000121179801FA00F01A99084380B21A90B7
:10338000ADE015984638152875D2DFE800F00B7FC0
:103390007F111B252F7F357F407F464C527F7F7FDB
:1033A000606A750000201790E0491498C8606FE0CB
:1033B00001201790DD48149901611B9840F001002D
:1033C0001B9065E002201790D848149941611B9822
:1033D00040F002001B905BE003201790D348149943
:1033E00081611B9840F004001B9051E0042017906D
:1033F000CE49139808774BE005201790149805F0F4
:10340000DFFF0990FDF7C0F8C849086240E00620D8
:103410001790C648149941623AE007201790C348B4
:103420001499816234E008201790C0481499C16251
:103430002EE009201790BE491498FDF755F901D2E6
:103440002620C3E5B949139881F8300020E00A200E
:103450001790B648149941631C9840F001001C90E5
:1034600016E00B201790B148149981631C9840F026
:1034700002001C900CE009E00C201790AB48149956
:10348000C1631C9840F004001C9001E014209DE5ED
:1034900000BF0121179801FA00F01999084008B1FE
:1034A000192093E50121179801FA00F040F26131EB
:1034B000084058B11498FDF7ADF800221346CDE945
:1034C0000801FDF7BBF801D204207FE50121179820
:1034D00001FA00F01999084380B2199000BF00BFAB
:1034E0009DF858102298405C00287FF463AD1C982A
:1034F00018B1219808B902202190199800F02000F5
:1035000030B18A48006A8B49884201DD1B205DE5A5
:10351000189800F0010090B1199800F0010008B966
:10352000162053E58148C078012834D17F48C0680F
:1035300081490990FCF791FE7C49C8602BE07B48EB
:10354000807801280FD12198022824D1774840782B
:10355000502820D075484078E8B1199800F0010053
:10356000C8B9162032E575484078A0B9199800F01E
:10357000010060B16D48C07801280CD16B48C0686B
:103580006D490990FCF769FE6849C86003E06B4823
:1035900000696649C860199800F4807018B96748D6
:1035A000C1686248C16261480078042809D119984D
:1035B00000F0400008B91C2008E5199820F04000F0
:1035C00019905A48407910B101280ED106E0002028
:1035D000209001201F9002201E900DE002202090DC
:1035E00000201F9001201E9006E001202090022064
:1035F0001F9000201E9000BF00BF4C48C0780128DB
:103600001FD10020119019E00121119801FA00F05A
:103610001C99084070B145483430119950F8210088
:1036200045490990FCF719FE014640483430119A8B
:1036300040F822101198401CC0B211901198032834
:10364000E2DB2198032809D138488079012805D187
:103650001C9880F0040008B12520B7E43748D0E971
:103660000A12006BCDE90E1210901A9800F4007047
:10367000A0B12E48C079062801DD1D20A6E42F4800
:1036800081792A48C079814208D02848C0790EA99A
:10369000099003F052FE08B9072097E42348007808
:1036A0000A2802D05C287DD1A0E01C9808B91A2015
:1036B0008CE4199800F0500008B91C2086E41B48DF
:1036C000406A089005F07CFE0990FCF776FFC0B2D6
:1036D0001D901D98062801DD1D2077E41348007F0A
:1036E00014280BD01148007F022805D1199800F04A
:1036F000800018B1142069E4142067E4199820F0C0
:10370000500019901D98002804DD1D98401EC0B27D
:103710001D9002E00548C0791D90044910311D98A4
:1037200003F00BFE60B9072050E4000058080020A9
:1037300000007F43809698003333CB41140800206B
:10374000002011904EE00121119801FA00F01C991F
:10375000084040B3FE48007F142837D1FD48119936
:1037600050F821000890FB48183850F821000790C5
:103770000899FCF76CFD0990F5483430119950F820
:103780002100014608900998FCF761FD0146F048C8
:103790001030119A40F82210119802281ED1ED48DD
:1037A000343801E077E019E0006C0990E848103007
:1037B000119950F8210008900999FCF748FD01463D
:1037C000E3481030119A40F8221007E0E048343006
:1037D000119950F82120243840F821201198401CDC
:1037E000C0B2119011980328ADDB1CE11C9808B9F8
:1037F0001A2068E40020119049E00121119801FA93
:1038000000F01C990840A8B30EA9119851F82000A7
:103810000890D0481838119950F82100079008995D
:10382000FCF715FD0990CA483430119950F8210071
:10383000014608900998FCF70AFD0146C448343057
:10384000119A40F82210119802281CD1C14834382E
:10385000006C0990BE483430119950F8210008904E
:103860000999FCF7F4FC0146B9483430119A40F844
:10387000221008E0FFE7B748119950F82120B4481A
:10388000343040F821201198401CC0B2119011989A
:103890000328B2DBC7E0219803286FD01C98E8B357
:1038A0000020119067E00121119801FA00F01C99A5
:1038B000084048B9A7481838119950F82120A44861
:1038C000343040F8212052E0A148007835284ED00D
:1038D0009F480079B0BB9F48119950F821000EA96C
:1038E0000890119851F8200007900899FCF75DFCAA
:1038F000099097483430119950F8210001460890FA
:103900000998FCF752FC014691483430119A40F86E
:103910002210119802282AD18E4800E02EE0343877
:10392000006C09908A483430119950F821000890B1
:103930000999FCF73AFC014685483430119A40F861
:10394000221014E0FFE783481838119950F821003D
:1039500009907F48343050F8210008900999FCF70D
:1039600024FC01467A483430119A40F8221011980C
:10397000401CC0B211901198032894DB7448007861
:10398000282842D006DC1C2809D01E2808D026286A
:1039900047D139E035283AD0662842D136E000BF19
:1039A0006B4800781C2807D169491031062003F0C4
:1039B000C4FC48B9072023E465491031072003F00F
:1039C000BCFC08B907201BE41C98D0B10020119062
:1039D00013E00121119801FA00F01C99084040B948
:1039E0005C481838119950F821205948103040F897
:1039F00021201198401CC0B2119011980328E8DBD7
:103A000001E0002021900CE000BF0AE009E05048EE
:103A1000407828B14E484078012801D01E2017E494
:103A200000BF00BF00BF00BF49484078502804D104
:103A30001C9800280BD01F200AE42198022806D1E8
:103A40004348407820B91C980028F8D12190A0E183
:103A50003F48C06800210990FCF73CFE01D11620C8
:103A600008E43B4840788C2878D006DC01280BD04D
:103A700002280ED003280BD110E08D286FD08E289D
:103A80006FD08F28F7D163E11C9808B900202190EE
:103A90007EE1189840F00400189000BF1C9808B907
:103AA0001A205AE40121209801FA00F001221F99FE
:103AB0008A4010431C99084008B920204DE425484D
:103AC0001838209950F8210007902148343050F8D8
:103AD000210006900799FCF7BAFB09901D48183899
:103AE0001F9950F8210007901948343050F82100F0
:103AF00006900799FCF7ABFB0890199800F080003E
:103B000070B3199820F0800019900C2210493431BC
:103B100010481838FCF73CFB08B921201DE40C487C
:103B2000C078012807D10A48806A0B490690FCF743
:103B300094FB0749886208990846FCF78EFB0690BB
:103B400009990846FCF789FB04900148806A09E05E
:103B500058080020480800203333CB41FDE0F6E050
:103B60006DE0FBE0014601904FF08140FCF775FBF2
:103B70000290FE48806A014601900298FCF76DFBB6
:103B800003900499FCF763FB05900699FCF75FFB33
:103B9000079000210798FCF79DFD01D2222050E4F8
:103BA000DDE9081000F0B4FB0690079804F098F9DE
:103BB00080F0004005900699FCF781FB0790EB48E8
:103BC0004078032803D1079880F000400790E74829
:103BD000806A00210690FCF77DFD09D2079880F0ED
:103BE00000400790E148806A80F00041DF48816230
:103BF000DDE90710FCF731FB05900999FCF72AFB7A
:103C00004FF07C510690FCF728FB0146D748103056
:103C1000209A40F8221007990998FCF71EFB05909E
:103C20000899FCF7C2FA4FF07C510690FCF715FB9F
:103C30000146CE4810301F9A40F8221086E001213C
:103C4000209801FA00F001221F998A4010431B9925
:103C5000084008B923201AE4199820F00E001990A2
:103C6000C248C07801281FD10020119019E001211D
:103C7000119801FA00F01B99084070B1BB48103050
:103C8000119950F82100BA490590FCF7E6FA01466F
:103C9000B6481030119A40F822101198401CC0B25A
:103CA000119011980328E2DBB0481030209950F8A9
:103CB0002100014605900998FCF7C9FA0990AB4824
:103CC00010301F9950F82100014605900898FCF724
:103CD000BEFA0890DDE9081000F01AFB0790A3482F
:103CE00010301F9950F821000590A04810302099FD
:103CF00050F821000490059900F00AFB9B49886266
:103D00000846806A014605900798FCF7A0FA20F063
:103D10000040069097490698FCF7E6FC15D24FF054
:103D20007C510698FCF7E0FC01D221201AE48F4870
:103D3000806A014604909048FCF78FFA0590069936
:103D4000FCF7C8FC01D221200CE400BF20E000BF3A
:103D5000189840F01000189000BF00BF83484078CA
:103D60008E2803D0814840788F2803D1189840F0DE
:103D7000080018901C9808B91A201DE40C227B49F1
:103D800034317E48FCF704FA08B9212014E400BF5E
:103D900000BF189800F0010020B1199820F0210010
:103DA000199004E040F22131199888431990219824
:103DB00018B1199820F4E0501990199808B12420EE
:103DC0004BE40BA80A9000210A98016041608160D1
:103DD000189800F0010070B31A9820F0490008B15B
:103DE00010203AE461480078352804D05F48007814
:103DF00008B1102031E461481C38C1680A9841605C
:103E00005E481C38407A5D491C39097A08438DF8B0
:103E1000340056490BA800F091FA0990099840B96E
:103E200056491C395148D0E90D32C06BC1E90732FF
:103E30004862099811E4FFE7514890F8480000F003
:103E40000200A8B34948407801280BD04748407881
:103E5000022807D045484078032803D0189840F03E
:103E6000400018901C9838B12198022804D1189865
:103E700040F08000189024E040481C38407A102818
:103E80001FD13E481C380078012809D03B481C3817
:103E90000078022804D039481C380078032808D15B
:103EA000189800F0400018B1189840F020001890C1
:103EB00007E0189800F0400018B9189840F020006A
:103EC00018902A48006A2D491C3988612748807853
:103ED00048700846407828B10A98007A40F00801F6
:103EE0000A9801722148C06824491C3908610846B3
:103EF00001690A9801601D48C06A09901F481C3872
:103F0000C06808900999FCF7E5FB03D1189800F008
:103F1000200010B319481C38407AC8B1189800F036
:103F20008000A8B9189800F0400038B113481C3838
:103F3000407A0021099003F0C1FF09E00B48C06AF4
:103F400009900E481C38407A0890099903F0B6FF92
:103F50000648C06A09491C39C860189800F040003A
:103F600088B906481C38C1680A980BE05808002038
:103F70003333CB410AD7A33B6F12833A300800207A
:103F8000541000204160D04890F83000CF490875A7
:103F90000846417ACC48807A81420CD00A98406821
:103FA0000990C948807A0890099903F087FFC648AC
:103FB000807AC64948720A98007AC449497A084307
:103FC0000A990872C148017ABF48407A814212D0EA
:103FD000BD48407A0990FEF7ADFDBB48407A18B95C
:103FE0000020BA49087206E0B848007AB649497A12
:103FF0000843B64908720A98007AB449097A084316
:104000000A990872B0480078042804D1AE48406A82
:10401000099000F059FEAC484079AC490871AA48B3
:10402000C07888702198032818D1A74880794871F2
:104030000846407910B90021A348C163A248C06B6B
:104040000990A248006C08900999FCF743FB05D041
:104050009D48C06B9D49086405F010F99B48817923
:104060009948C07981420AD09748C07997498871A8
:1040700008460EA90EC928300EC005F0FFF8924878
:1040800000799249C8709048007826283FD006DC15
:104090000A280BD01C281ED01E2857D11CE0282827
:1040A0003BD05C283FD0662850D147E0864910318C
:1040B0001D9803F024FC854881791D98814209D11F
:1040C00082498148D0E904328069C1E90A32086333
:1040D00005F0D4F83AE000BF0A98007A40F00101F8
:1040E0000A980172219820B1774834300A9900F07B
:1040F00039FE754810300A9900F034FE734A724850
:10410000D0E904318069C2E9073150621EE06F498D
:104110001C31062003F0F3FB18E06C491C3107202A
:1041200003F0EDFB12E069496748D0E90D32C06B3E
:10413000C1E90D32C86305F0A1F807E0634800212A
:1041400041638163C16305F099F800BF00BF5E4819
:1041500040785E4908700846007850285AD0219867
:10416000022857D10020099008460078012805D17F
:10417000554834300A9900F0F5FD3AE0534800788C
:1041800058B90A98007A40F001010A9801724E4825
:1041900034300A9900F0E6FD2BE04C480078022804
:1041A00003D04A480078032816D11898C0F380003D
:1041B000DDE91F321E99CDE90123CDE90310424804
:1041C000806A414B1033414A1C32009003F12400B5
:1041D0000A9900F0DFFB0CE00A98007A40F0040135
:1041E0000A98017238483430189A0A9900F0F8FD9C
:1041F0000990099840B935493348D0E90D23C06B7F
:10420000C1E90723486204E00998012801D100F0C0
:1042100075F800BF2C48007A2C49C8710846C0794F
:10422000D8B301F09BFB2948C079032809D128485D
:10423000007802282ED0082005F0B8F801F0FEFE24
:1042400028E001202149087000200871C8704870DA
:1042500088714872087264201D498872C872087398
:1042600008460078022812D018488079174928316A
:10427000099003F062F808B9072012E404F0FEFF89
:104280000021084603F0CAFD0020FEF725FC0820A7
:1042900002F092F900210D48C1710B48807A40B1BB
:1042A0000948C06A0B490990FCF71EFA01D8FDF7CE
:1042B000A3F80548807A10B10548007808B1FDF7E9
:1042C000C5F800202AE40000580800201408002047
:1042D000A80000200000484310B544210648FBF721
:1042E0004CFF05498879283103F027F810B90720D9
:1042F00002F04AFE10BD00001408002010B502496B
:10430000024804F07FFD10BDBC00002030080020F2
:104310002DE9F04104460D4629462846FBF79DFF4E
:10432000074621462046FBF798FF80463946FBF7B3
:104330003CFF064603F0D4FDBDE8F08170B50446AD
:104340000D46E8682060207A40F004002072104892
:1043500090F8480000F0200030B105F1340004F07E
:10436000D7FC08B10F2070BD214605F1340000F0E4
:10437000F9FC0848007848B901F03AF830B120203B
:104380000449087003F052FE04F0E2FB0020EAE763
:1043900054100020A80000202DE9F04106460D46EB
:1043A000134F00241FE055F824000021FCF792F978
:1043B00017D055F8241056F82400FBF780FF20F0A2
:1043C000004839464046FCF78FF901D2384607E0ED
:1043D00055F8241056F82400FBF771FF20F0004038
:1043E0000746601CC4B2032CDDDB3846BDE8F08113
:1043F000FFFF7F7F282000F01F0201219140034A28
:10440000430942F8231000BF7047000080E100E03C
:1044100070B500260F48FCF71BFF05460E4890F8C4
:10442000480000F0400010B985F4E04500E000BF0E
:1044300075B100240AE0094830F81400284018B18A
:104440000120A0403043C6B2601CC4B2032CF2DB92
:10445000304670BD000C014054100020AC940008A0
:104460002DE9F04F8DB080469248407810B10DB0E4
:10447000BDE8F08F0DF128090020C9F80000C9F847
:104480000400C9F80800062089F8080003200990F4
:104490000026002420E0884830F8140007A921F8FD
:1044A00014000120A04000EA080098B1834850F8A9
:1044B00024108348FBF7D1FE31460190FCF70AF93E
:1044C00001D2304605E07D4850F824107C48FBF7C7
:1044D000C4FE0646601CC4B2032CDCDB0125774811
:1044E0002438D0F858A000BF764904A804F08AFC0C
:1044F00000270020039000242FE00120A04000EAC4
:10450000080040B30398401CC0B2039000206D49DE
:1045100041F8240069482438B0F852000121A14034
:10452000084050B12DB186F0004004A941F82400A4
:104530000DE004A840F8246009E01DB104A840F88B
:10454000246004E086F0004004A941F8240007A894
:1045500030F814000743601CC4B2032CCDDB039871
:10456000FCF70DF8009003F0BBFC51460190FBF7FF
:1045700074FE82464F480781C9F800A0494604A846
:1045800000F026FD04204B49487103F04FFD04F074
:10459000DFFA00BFC5B1FFF73BFF834600240FE001
:1045A00007A830F81400384040B10120A04000EACC
:1045B0000B0018B107A830F814008743601CC4B280
:1045C000032CEDDB3B48078103F030FD3E480078CB
:1045D00000F0340068B33C4800780190019800F086
:1045E000100010B1062004F0CFFE019800F020006A
:1045F00010B1072004F0C8FE3DB9FFF709FF00EA3B
:10460000080010B1082004F0BFFE35B1019800F099
:10461000040010B1092004F0B7FE2C48007820B146
:1046200000F04EFC01F00AFD21E7042004F0C0FB7D
:1046300003E007F054000028ACD100BF04F00EFAEC
:104640001E492439B1F85C00FCF740FA0DB901208D
:1046500000E0002005465DB118492439086E1C4968
:10466000FBF7FBFD064615482438D0F854A004E0BB
:1046700012482438066ED0F858A00998411EC9B2D5
:10468000099100283FF730AF00240CE00120A04042
:1046900000EA080028B1002002900A49029841F877
:1046A0002400601CC4B2032CF0DB002001494871D7
:1046B00000BFDCE6A8000020A094000878100020CD
:1046C0000000C0BFBC00002001000020020000204C
:1046D0000000A0401FB501210920FCF771FF032055
:1046E0008DF80E0048208DF80F004FF4E040ADF833
:1046F0000C0003A91A48FCF7D7FC1A4890F84800A8
:1047000000F0080048B30C210120FCF7ADFC0D219E
:104710000120FCF7A9FC0E210120FCF7A5FC4FF4B9
:10472000E040019000208DF808000C208DF8090071
:1047300001208DF80A0001A8FCF77CFB28208DF8E9
:10474000000003208DF801008DF8020001208DF893
:1047500003006846FCF7B0FE01E0FFF74BFE1FBD0B
:10476000000C01405410002010B50446204604F00F
:10477000CFFAD8B101200E49087108460078082800
:104780000CD104F013FE00BF01F058FC084840783B
:1047900000B110BD064800780028F5D100F090FB6C
:1047A000022004F0F1FD01F049FCF2E700BFF0E760
:1047B000A800002070B50546FCF737F8044601460E
:1047C0002846FBF744FD15F0004F4FF07F450ED013
:1047D000B0F13F4F28BFB5EB400F0ED2B0F17C5F78
:1047E0001DDDB5EB400F1AD313E0044617E0B0F11E
:1047F0003F4F08D9B5EB400F05D34FF07E5120460F
:10480000FBF725FDF1E7B0F17C5F08DBB5EB400F6E
:1048100005D34FF07E512046FBF7C7FCE5E7B4F126
:104820009E4F02DDB5EB440F05D2B4F14F4F05D9D1
:10483000B5EB440F02D30120FDF73CFF2046BDE855
:104840007040FCF76DB80000FCF7EEFBFEF7AAFA2B
:104850004FF0E020006920F004004FF0E0210861F3
:10486000FCF7BEFE02F04AFDFCF70EF94FF4A06023
:10487000FCF75AFE4FF4E13004F0CCFD02F028FCC6
:10488000FCF730FD00BFFCF7CFFBFEF78BFA4FF0D3
:10489000E020006920F004004FF0E021086102F000
:1048A00017FC02F02BFD04F0A1F904F0F1FCFCF779
:1048B0007DF8FCF74BFD02F0DFFC28480021016089
:1048C0004160816000202649087088702548FCF707
:1048D000FBFA00BF2248807830B123A000F096FF99
:1048E00001202549087038E01D4804781421FBF7A1
:1048F00044FC1B480470642019498872C87208730C
:104900001E48002101604160816000201C49087040
:104910001C4908701C4908701C4908701C49087023
:1049200002F05CFCFFF7D8FC03F06CF9FEF7ACF882
:1049300011480078012801D0FFF7CCFE00F0D4FF29
:1049400000F0A4FD04F08AF800F0BEFDFFF7D6FCED
:1049500002F094F801F07EFBBCE794E7BC00002075
:10496000A800002000F801087379732E61626F724D
:1049700074730D0A000000007A000020C8000020B7
:1049800000000020010000200200002003000020A1
:10499000040000202DE9F04F95B08146884614466A
:1049A0001D46DDE9207A1F9E55F8261054F8260092
:1049B000FBF7FBFB139055F8271054F82700FBF783
:1049C000F4FB129055F8260080F00040119055F845
:1049D000270080F00040109059F826001399FBF74B
:1049E00036FC0F9059F827001299FBF730FC0E9017
:1049F0000E991098FBF731FC0A900F991198FBF76C
:104A00002CFC09900A99FBF7D0FB0C90DDE90F1004
:104A1000FBF723FC0A900E991198FBF71EFC0990F6
:104A20000A99FBF714FC0B900C99FDF749FE0D90C9
:104A3000229878B10D98FBF7EDFD9B4A9B4BCDE991
:104A40000A01FBF713FE14D899490D98FBF7FFFBF9
:104A50000D900EE00D98FBF7DDFD934A954BCDE9E7
:104A60000A01FBF7EBFD04D891490D98FBF79DFB7C
:104A70000D904FF080401E99FBF7EFFB06908E489B
:104A8000C16B0698FBF7E3FB07908B48C16B079857
:104A9000FBF7E3FB089003F023FA0A904FF07C50F9
:104AA0000D99FBF7DAFB08901E99FBF7D6FB20F077
:104AB000004009900A99FBF702FC0B90FEF708FAF8
:104AC0000C90FBF77AFD1FFA80FBBBF1000F7DD045
:104AD00098F8080000F0080078B15846FBF74FFD41
:104AE0000390D8F80010FBF7B8FBC8F8000098F85E
:104AF000080020F0080088F808005846FBF73FFD42
:104B0000014603900D98FBF7DAFB0C905846FBF733
:104B100036FD039054F82A1059F82A00FBF797FB4A
:104B200002900399FBF7CBFB0B900C990846FBF71F
:104B300094FB4FF080410390FBF78CFB0A904FF001
:104B400081410A98FBF731FB5C4903900C98FBF715
:104B500084FB02900399FBF780FB09900A98FBF70E
:104B600059FD0022564BCDE90001FBF78DFCCDE944
:104B70000201FBF793FD0A900020049001200590AC
:104B800086E004980C2824DA0A991098FBF765FB54
:104B9000039009991198FBF760FB02900399FBF7CA
:104BA00004FB069009991098FBF757FB03900A99AC
:104BB0001198FBF752FB02900399FBF748FB119009
:104BC000069810900498401CC0B200E065E0049084
:104BD0003DE00598FBF7D3FC02900C99FBF73DFBF9
:104BE0000390FDF7B7FF07900598FBF7C8FC02900C
:104BF0000C99FBF732FB039002F092FE089055F8F7
:104C000027000899FBF729FB039055F8260080F050
:104C1000004001900799FBF720FB02900399FBF7F6
:104C2000C4FA119055F827000799FBF716FB03907B
:104C300055F8260080F0004001900899FBF70DFB25
:104C400002900399FBF703FB109000200490119948
:104C50001398FBF7AAFA44F8260010991298FBF76C
:104C6000A4FA44F8270054F82A000B99FBF79DFAA0
:104C700044F82A004146204600F074F81148407874
:104C800010B115B0BDE8F08F0598401C80B20590BA
:104C900005985845FFF675AF00BF4146484600F0FD
:104CA00061F800BFEDE700008DEDB5A0F7C6A0BE2E
:104CB000DA0FC940F7C6A03E54100020ABAA2A3E26
:104CC0000000E03FA800002010B504460648007828
:104CD000022800D110BD00F041FE00212046FDF762
:104CE000F7FF00BFF6E70000A800002010B504465B
:104CF000FFF780FB1CB12046FFF7B2FB05E0042064
:104D0000FFF7AEFB0320FFF7ABFB01F097F9134869
:104D1000407810B1FFF7DEFC10BDFFF7EFFA00F0AE
:104D2000D3FB4FF4E040FCF76BF8282000F01F02A3
:104D3000012191400A4A430942F8231000BF00BFF5
:104D400000F01F02012191404209920002F1E0228D
:104D5000C2F8001100BF00BFDEE70000A80000207D
:104D600080E200E070B505460C461B4890F848000C
:104D700000F0200030B119480078202802D02846E1
:104D8000FFF7F2FC15480078022800D170BD00BF83
:104D900001F054F91148407800B1F7E700F074FAD7
:104DA00010B100F0D3FD00E000E0F1E700BF2146C4
:104DB000284600F00DF968B9074890F8480000F05F
:104DC000020038B1207A00F0100018B1102061689C
:104DD00003F074F800BFD9E754100020A8000020A9
:104DE0002DE9F041074688461446314800780228EC
:104DF00002D10020BDE8F08100F0B0FD2C484078E1
:104E000008B10220F6E7C4F3C005C4F30016002081
:104E100027498871284600F03BFD00F053FD48B15A
:104E2000042004F0B1FA01F009F9002000F030FD8F
:104E30000220DFE741463846FFF794FF01201D4975
:104E40000870022004F0B2FA00BF01F0F7F8184829
:104E5000407808B10220CDE7154800780028F4D149
:104E600014480078012809D126B11348134B0ECB02
:104E70000EC006E0052004F087FA02E001200C498C
:104E8000887100200B49087000F002FD01F0D6F88F
:104E900003F0E4FD00F0FAFA00F016FB01F05AFE10
:104EA0000348807908B10120A4E70020A2E70000B0
:104EB000A800002000000020C8000020BC00002046
:104EC00010B51348007800F0100000BB102004F06B
:104ED0006DFA02F0DDFFFDF721FE0E48007800F0CC
:104EE0002C0020B90B48407900F0060078B1094841
:104EF0000078042806D10848007830B9062004F06C
:104F000043FA02E0032004F03FFA03F03FF810BD3B
:104F100001000020A800002002000020F0B5044697
:104F20000D461646002311E028466D1CFDF734FFA0
:104F30000246580008B9D81108B1012000E000204D
:104F400003469818C3B204F8012B761E002EEBD14D
:104F50002846FDF721FF984201D10120F0BD002035
:104F6000FCE72DE9F04107460C461646002511E006
:104F7000680008B9E81108B1012000E000200546EA
:104F800020782844C5B214F8011B38467F1CFDF771
:104F90002BFF761E002EEBD129463846FDF724FF65
:104FA000FDF7C6FEBDE8F08110B5074890F8500047
:104FB00020B101210548FCF75CF903E00121034819
:104FC000FCF759F910BD000054100020000C0140FE
:104FD0002DE9F04F91B080460E46A048007800EBD6
:104FE000800101EBC0009E4901EB80043421204682
:104FF000FBF7C3F8307AA07470682063A07C00F0DF
:10500000020038B1974AD2E900109268CDE90C024B
:105010000B9103E0944A07CA0BAB07C3002544E099
:10502000924A52F8251058F82500FBF716F98146E8
:10503000FFF7C0FB0EA941F8250051F825100BAA77
:1050400052F82520881A002801DB014600E0414281
:1050500044F8251054F82510E068884201D9E0682A
:1050600001E054F82500E0600EA951F825100BAAC4
:1050700052F82520881AFBF779FA81467B4850F8C8
:1050800025104846FBF71BF9074608A840F825708D
:1050900000213846FBF71EFB05D2208A744931F8FF
:1050A000151008432082681CC5B2032DB8DBE068E8
:1050B00018B9002011B0BDE8F08F08A8FDF798FCE2
:1050C000206208A969481830FFF766F9E06108A96D
:1050D00066480C30FFF760F9A062A07C00F0010088
:1050E00010B1A06AE0620AE03068E062A07C00F0E3
:1050F000080020B1216AE06AFBF7AFF8E062574888
:1051000000785C490978884203D0A07C00F0020056
:1051100018B100206061606278E04FF0000900255E
:105120001BE008AA52F825104F4A0C3252F825000D
:10513000FBF793F882464946FBF78CF881464A4ACA
:105140000C3252F8251008AA52F82500FBF77FF818
:1051500005A941F82500681CC5B2032DE1DB4649CD
:105160004846FBF7C1FA02D2002060624DE0434995
:105170004846FBF7AFFA02D24148606245E005A815
:10518000FDF736FC05A939481830FFF705F90490FA
:1051900049464FF07E50FBF75AF883464FF07C515A
:1051A000FBF75BF8824602F09BFE03904FF07E50C7
:1051B0000399FBF74CF802902C48816B0498FBF79D
:1051C0004CF801900399FBF748F883460299FBF7E6
:1051D00076F882460021FBF77DFA01D2002012E02A
:1051E0004FF07E500399FBF732F802901F48816B15
:1051F0000498FBF732F883460399FBF72EF88246B2
:105200000299FBF75CF8606200BF00BFA07C00F071
:10521000020008BB204600F045F881461248494686
:105220008269204600F080F80F48C0F8189008A95D
:105230000EC90C300EC018380EA90EC90EC0114888
:105240000078064908700846007800F013F90D4907
:10525000087000F079F900BF01202BE74C00002016
:1052600098080020BC000020E80F00205410002007
:10527000A69400084B000020EFFF7F3FEFFF7FBFA9
:10528000FFFF7F7F4D000020044800780449097823
:10529000884201D1012070470020FCE74B0000202C
:1052A0004D0000202DE9F0410446E56AA07C00F0A5
:1052B000010068B11949C87AFBF761F90746184936
:1052C000FAF7CBFF06462946FAF7C7FF054616E070
:1052D000A07C00F0040060B91049887AFBF74FF910
:1052E00007460F49FAF7B9FF06462946FAF7B5FF10
:1052F00005462846A16AFBF7F7F900D2A56A2846B9
:10530000FBF788F906460022064BFBF7AFF902D2FD
:105310002846BDE8F0814FF07E50FAE7A800002053
:105320000AD7233C0000F03F70B504460E461546F0
:1053300029463046FBF7D8F905D229462846FAF720
:105340008CFFA06104E031463046FAF786FFA06189
:10535000616AA069FBF7C8F901D2606AA06170BDFB
:1053600010B503F0DBFB034800780349087000F038
:10537000EBF810BD4B0000204E00002000B50B489C
:1053800000780B49097888420FD00948007800F06E
:1053900071F802460648007806490978884201D12A
:1053A000044802700248027000BF00BD4C0000209B
:1053B0004B0000204E0000200B4800780B49097874
:1053C000884208DB0848007808490978401AC0F18B
:1053D0002300C0B270470548007803490978401A95
:1053E000401EC0B2F6E700004C0000204B00002039
:1053F0000848007808490978884201D100207047A0
:105400000548007800EB800101EBC000034901EB87
:105410008000F4E74C0000204B000020980800209A
:1054200000B50A48007800F025F8024608480078E0
:10543000824201D1002000BD02EB820000EBC200DD
:10544000044901EB80004069F5E700004B000020B3
:105450004C000020980800200448007800EB8001F0
:1054600001EBC000024901EB800070474C000020B6
:1054700098080020411CC8B2242800D100207047A1
:1054800000B92420411EC8B27047000010B51C218D
:105490000248FAF772FE00F003F810BDE80F002092
:1054A000002005490870054908700120044908706A
:1054B00000200449087070474B0000204C00002079
:1054C0004D0000204E000020002007E0054951F863
:1054D0002010054A42F82010411CC8B20328F5DB11
:1054E00070470000BC000020E80F00202DE9F041CB
:1054F00010480478104F14E004EB840000EBC40063
:105500000E4901EB80063046FFF7CCFE05463A46D1
:1055100029463046FFF708FF2F462046FFF7AAFF2F
:105520000446074800788442E6D106488761BDE812
:10553000F08100004B000020FFFF7F7F98080020D3
:105540004C000020E80F00202DE9F0475848007873
:10555000FFF796FF054657480078854201D1BDE820
:10556000F08705EB850000EBC500534901EB800493
:105570004FF08040E169FAF770FE8146216AFAF740
:105580006CFE8046A169FBF7AFF801D2A06908E084
:105590004FF08040E169FAF760FE8046216AFAF731
:1055A0005CFE60612846FFF76BFF054641480078C6
:1055B000854206D141480078854235D103F0AEFAE4
:1055C00032E02DE0264605EB850000EBC5003A49A8
:1055D00001EB80042846FFF753FF05463748007863
:1055E000854201D103F09AFAD4E90501FBF772F87C
:1055F00016D04FF08040E169FAF72FFE8146216A0C
:10560000FAF72BFE80467169FAF7CFFD0746384658
:10561000A169FBF75FF801D2676101E0A0696061F1
:10562000244800788542CDD12248007800EB8001E3
:1056300001EBC000204901EB80061E480078FFF70F
:1056400019FF05462DE0344605EB850000EBC5004B
:10565000194901EB800671696069FBF73BF815D2C7
:105660004FF08040E169FAF7F8FD8146216AFAF7C8
:10567000F4FD80466169FAF798FD0746384671697E
:10568000FBF728F802D277610A480570D6E90501D0
:10569000FBF720F801D1074805702846FFF7EAFE1E
:1056A0000546034800788542CDD100BF57E700008A
:1056B0004C0000204E000020980800204B000020E5
:1056C0002DE9F04786B082460D4600215046FBF793
:1056D00001F804D22D2001F093FD8AF0004AA9467A
:1056E00008E02D495046FAF7B8FD8246A9F10200BC
:1056F00000F0FF09B9F1020FF3DAB9F1000F04D09D
:1057000026495046FAF7A9FD82465046FAF782FF2D
:1057100007460022224BFAF710FECDE90001FAF706
:10572000BDFF824600245046FAF72EFF06460DE0E4
:105730000A20B6FBF0F100FB116030302146621CFC
:10574000D4B202AA50540A20B6FBF0F6002EEFD1D4
:1057500005E030222046611CCCB202A90A54AC42BA
:10576000F7DBAC4205D130222046611CCCB202A945
:105770000A540BE0AC4202D12E2001F041FD611E23
:1057800002AA505C01F03CFD601EC4B2002CF1DCAA
:1057900006B0BDE8F08700000000C84200002041CC
:1057A0000000E03F70B50446094890F8480000F05A
:1057B000010040B107492046FAF74FFD0546042194
:1057C000FFF77EFF03E003212046FFF779FF70BD5E
:1057D000541000208B42213D70B50446094890F8D2
:1057E000480000F0010040B107492046FAF735FDB6
:1057F00005460121FFF764FF03E000212046FFF783
:105800005FFF70BD541000208B42213D70B50446EF
:1058100002E0284601F0F4FC14F8015B002DF8D1F9
:1058200070BD10B5044603E014F8010B01F0E8FC6C
:1058300020780028F8D110BD70B504460025002658
:10584000642C0ADB0A2094FBF0F100FB114030309D
:10585000C5B20A2094FBF0F0C4B20A2C0ADB0A207D
:1058600094FBF0F100FB11403030C6B20A2094FBEB
:10587000F0F0C4B204F13001C8B201F0C1FC16B1BD
:10588000304601F0BDFC15B1284601F0B9FC70BDF1
:1058900000210A4A11800A4991F8481001F080015C
:1058A00021B91146098881F02001118028B10349EE
:1058B000098881F02001014A1180704750000020C2
:1058C0005410002010B50648FBF7C2FC00F0200081
:1058D00004490988484008B1012010BD0020FCE7B8
:1058E000000C01405000002008B501210820FBF702
:1058F00067FE03208DF8020048208DF80300202069
:10590000ADF8000069460348FBF7CEFB0020FFF727
:10591000BFFF08BD000C014010B5FFF7D3FF60B119
:105920000020064908700648064B0ECB0EC00648FC
:10593000007840F040000449087010BD00000020CD
:10594000C8000020BC0000200100002010B5FFF7B7
:105950004FFD10B1022003F029FD10BD10B5FFF777
:10596000F5FF00BF00F06AFB0648407800B110BDAB
:10597000FFF73EFD0028F5D1024800780828F1D055
:1059800000BFF4E7A800002070B5FFF731FD054621
:1059900045B98348407A8249097A40EA010480483F
:1059A000C66801E0AC7C2E6B7E4890F8480000F0A1
:1059B000020010B1202003F0DDFCEAE07A484078D4
:1059C00000B170BD7848C07800F0010000281FD0F9
:1059D0007548007800F0C00000287DD07248C0787B
:1059E00000F00400A8B900206F4948730021084660
:1059F00002F014FA0020FDF76FF86B48C07820F031
:105A000002006949C8700846C07840F00400C870B8
:105A1000BDE065480078802813D10B2000F0CCFD54
:105A20000021084602F0FAF90020FDF755F802F0CF
:105A3000ADFA01E000F0BAF85B4840780028F9D0F0
:105A4000BFE759480078402808D103F05BF928B92E
:105A50005548C07820F020005349C8705248C0789B
:105A600000F008000028D3D04D48407AD8B14E4805
:105A7000C07800F00200B0B94A4890F8480000F041
:105A8000020030B14848407940F00800464948716A
:105A900009E004F03000314602F0C0F901214FF076
:105AA0008140FDF715F93E48007A68B13E48C0785C
:105AB00000F0020040B904F04000FDF70DF80121AC
:105AC0004FF07E50FDF704F93748C07800F002002F
:105AD00000285CD1344800E008E0C07840F01000B5
